{
  "_format": "hh-sol-artifact-1",
  "contractName": "MilestoneEscrow",
  "sourceName": "contracts/MilestoneEscrow.sol",
  "abi": [
    {
      "inputs": [
        {
          "internalType": "address",
          "name": "_campaignOwner",
          "type": "address"
        },
        {
          "internalType": "address",
          "name": "_platformAdmin",
          "type": "address"
        }
      ],
      "stateMutability": "nonpayable",
      "type": "constructor"
    },
    {
      "anonymous": false,
      "inputs": [],
      "name": "Cancelled",
      "type": "event"
    },
    {
      "anonymous": false,
      "inputs": [
        {
          "indexed": true,
          "internalType": "address",
          "name": "backer",
          "type": "address"
        },
        {
          "indexed": false,
          "internalType": "uint256",
          "name": "amount",
          "type": "uint256"
        }
      ],
      "name": "Contributed",
      "type": "event"
    },
    {
      "anonymous": false,
      "inputs": [
        {
          "indexed": true,
          "internalType": "uint256",
          "name": "index",
          "type": "uint256"
        },
        {
          "indexed": false,
          "internalType": "uint256",
          "name": "amount",
          "type": "uint256"
        }
      ],
      "name": "MilestoneAdded",
      "type": "event"
    },
    {
      "anonymous": false,
      "inputs": [
        {
          "indexed": true,
          "internalType": "uint256",
          "name": "index",
          "type": "uint256"
        },
        {
          "indexed": false,
          "internalType": "uint256",
          "name": "amount",
          "type": "uint256"
        },
        {
          "indexed": false,
          "internalType": "address",
          "name": "to",
          "type": "address"
        }
      ],
      "name": "MilestoneReleased",
      "type": "event"
    },
    {
      "anonymous": false,
      "inputs": [
        {
          "indexed": true,
          "internalType": "address",
          "name": "to",
          "type": "address"
        },
        {
          "indexed": false,
          "internalType": "uint256",
          "name": "amount",
          "type": "uint256"
        }
      ],
      "name": "Refunded",
      "type": "event"
    },
    {
      "inputs": [
        {
          "internalType": "uint256",
          "name": "amountWei",
          "type": "uint256"
        }
      ],
      "name": "addMilestone",
      "outputs": [],
      "stateMutability": "nonpayable",
      "type": "function"
    },
    {
      "inputs": [
        {
          "internalType": "address",
          "name": "to",
          "type": "address"
        },
        {
          "internalType": "uint256",
          "name": "amountWei",
          "type": "uint256"
        }
      ],
      "name": "adminRefund",
      "outputs": [],
      "stateMutability": "nonpayable",
      "type": "function"
    },
    {
      "inputs": [],
      "name": "campaignOwner",
      "outputs": [
        {
          "internalType": "address",
          "name": "",
          "type": "address"
        }
      ],
      "stateMutability": "view",
      "type": "function"
    },
    {
      "inputs": [],
      "name": "cancelCampaign",
      "outputs": [],
      "stateMutability": "nonpayable",
      "type": "function"
    },
    {
      "inputs": [],
      "name": "cancelled",
      "outputs": [
        {
          "internalType": "bool",
          "name": "",
          "type": "bool"
        }
      ],
      "stateMutability": "view",
      "type": "function"
    },
    {
      "inputs": [],
      "name": "contribute",
      "outputs": [],
      "stateMutability": "payable",
      "type": "function"
    },
    {
      "inputs": [],
      "name": "escrowBalance",
      "outputs": [
        {
          "internalType": "uint256",
          "name": "",
          "type": "uint256"
        }
      ],
      "stateMutability": "view",
      "type": "function"
    },
    {
      "inputs": [
        {
          "internalType": "uint256",
          "name": "",
          "type": "uint256"
        }
      ],
      "name": "milestones",
      "outputs": [
        {
          "internalType": "uint256",
          "name": "amount",
          "type": "uint256"
        },
        {
          "internalType": "bool",
          "name": "released",
          "type": "bool"
        }
      ],
      "stateMutability": "view",
      "type": "function"
    },
    {
      "inputs": [],
      "name": "milestonesCount",
      "outputs": [
        {
          "internalType": "uint256",
          "name": "",
          "type": "uint256"
        }
      ],
      "stateMutability": "view",
      "type": "function"
    },
    {
      "inputs": [],
      "name": "platformAdmin",
      "outputs": [
        {
          "internalType": "address",
          "name": "",
          "type": "address"
        }
      ],
      "stateMutability": "view",
      "type": "function"
    },
    {
      "inputs": [
        {
          "internalType": "uint256",
          "name": "index",
          "type": "uint256"
        }
      ],
      "name": "releaseMilestone",
      "outputs": [],
      "stateMutability": "nonpayable",
      "type": "function"
    },
    {
      "inputs": [],
      "name": "totalDeposited",
      "outputs": [
        {
          "internalType": "uint256",
          "name": "",
          "type": "uint256"
        }
      ],
      "stateMutability": "view",
      "type": "function"
    },
    {
      "inputs": [],
      "name": "totalReleased",
      "outputs": [
        {
          "internalType": "uint256",
          "name": "",
          "type": "uint256"
        }
      ],
      "stateMutability": "view",
      "type": "function"
    }
  ],
  "bytecode": "0x60c060405234801561001057600080fd5b50604051610bd1380380610bd183398101604081905261002f916100bd565b6001600160a01b0382161580159061004f57506001600160a01b03811615155b61008a5760405162461bcd60e51b81526020600482015260086024820152672120a22fa0a2222960c11b604482015260640160405180910390fd5b6001600160a01b039182166080521660a0526100f0565b80516001600160a01b03811681146100b857600080fd5b919050565b600080604083850312156100d057600080fd5b6100d9836100a1565b91506100e7602084016100a1565b90509250929050565b60805160a051610a9261013f600039600081816101ca0152818161029301528181610545015281816106da015261088e01526000818161017e0152818161042801526104e20152610a926000f3fe6080604052600436106100c25760003560e01c8063cdcd7fb51161007f578063e33b7de311610059578063e33b7de314610207578063e89e4ed61461021d578063e9811abd14610252578063ff50abdc1461027257600080fd5b8063cdcd7fb5146101b8578063d7bb99ba146101ec578063e11e1b0c146101f457600080fd5b8063317debf5146100c7578063346eb6d1146100e9578063980e7844146101095780639a82a09a1461011e578063ab36e4a61461014d578063b17fac221461016c575b600080fd5b3480156100d357600080fd5b506100e76100e236600461098f565b610288565b005b3480156100f557600080fd5b506100e76101043660046109a8565b61053a565b34801561011557600080fd5b506100e76106cf565b34801561012a57600080fd5b506003546101389060ff1681565b60405190151581526020015b60405180910390f35b34801561015957600080fd5b506000545b604051908152602001610144565b34801561017857600080fd5b506101a07f000000000000000000000000000000000000000000000000000000000000000081565b6040516001600160a01b039091168152602001610144565b3480156101c457600080fd5b506101a07f000000000000000000000000000000000000000000000000000000000000000081565b6100e761078c565b34801561020057600080fd5b504761015e565b34801561021357600080fd5b5061015e60025481565b34801561022957600080fd5b5061023d61023836600461098f565b610852565b60408051928352901515602083015201610144565b34801561025e57600080fd5b506100e761026d36600461098f565b610883565b34801561027e57600080fd5b5061015e60015481565b336001600160a01b037f000000000000000000000000000000000000000000000000000000000000000016146102d95760405162461bcd60e51b81526004016102d0906109e0565b60405180910390fd5b60035460ff16156103185760405162461bcd60e51b815260206004820152600960248201526810d05390d15313115160ba1b60448201526064016102d0565b600054811061034f5760405162461bcd60e51b815260206004820152600360248201526227a7a160e91b60448201526064016102d0565b600080828154811061036357610363610a04565b60009182526020909120600290910201600181015490915060ff16156103b55760405162461bcd60e51b8152602060048201526007602482015266414c524541445960c81b60448201526064016102d0565b80544710156103f55760405162461bcd60e51b815260206004820152600c60248201526b125394d551919250d251539560a21b60448201526064016102d0565b6001818101805460ff19169091179055805460028054600090610419908490610a30565b909155505080546040516000917f00000000000000000000000000000000000000000000000000000000000000006001600160a01b0316918381818185875af1925050503d8060008114610489576040519150601f19603f3d011682016040523d82523d6000602084013e61048e565b606091505b50509050806104cf5760405162461bcd60e51b815260206004820152600d60248201526c1514905394d1915497d1905253609a1b60448201526064016102d0565b8154604080519182526001600160a01b037f000000000000000000000000000000000000000000000000000000000000000016602083015284917fefa981f9388f17167597c5fee4fc3d24b2b772263e1accbf61cfb2d219fc40f591015b60405180910390a2505050565b336001600160a01b037f000000000000000000000000000000000000000000000000000000000000000016146105825760405162461bcd60e51b81526004016102d0906109e0565b60035460ff166105c45760405162461bcd60e51b815260206004820152600d60248201526c1393d517d0d05390d153131151609a1b60448201526064016102d0565b804710156106035760405162461bcd60e51b815260206004820152600c60248201526b125394d551919250d251539560a21b60448201526064016102d0565b6000826001600160a01b03168260405160006040518083038185875af1925050503d8060008114610650576040519150601f19603f3d011682016040523d82523d6000602084013e610655565b606091505b50509050806106945760405162461bcd60e51b815260206004820152600b60248201526a14915195539117d190525360aa1b60448201526064016102d0565b826001600160a01b03167fd7dee2702d63ad89917b6a4da9981c90c4d24f8c2bdfd64c604ecae57d8d06518360405161052d91815260200190565b336001600160a01b037f000000000000000000000000000000000000000000000000000000000000000016146107175760405162461bcd60e51b81526004016102d0906109e0565b60035460ff16156107545760405162461bcd60e51b8152602060048201526007602482015266414c524541445960c81b60448201526064016102d0565b6003805460ff191660011790556040517f63b958841f79ab97cb5456da181454b9932c0e15a3b17f1cbd27e2a8bc61043790600090a1565b60035460ff16156107cb5760405162461bcd60e51b815260206004820152600960248201526810d05390d15313115160ba1b60448201526064016102d0565b600034116108045760405162461bcd60e51b81526004016102d0906020808252600490820152635a45524f60e01b604082015260600190565b34600160008282546108169190610a30565b909155505060405134815233907f62722348256371b5147820d6cad90c40fd2da1ccee18c3ed52c0bca5a61dbbab9060200160405180910390a2565b6000818154811061086257600080fd5b60009182526020909120600290910201805460019091015490915060ff1682565b336001600160a01b037f000000000000000000000000000000000000000000000000000000000000000016146108cb5760405162461bcd60e51b81526004016102d0906109e0565b6040805180820190915281815260006020820181815281546001808201845583805293517f290decd9548b62a8d60345a988386fc84ba6bc95484008f6362f93160ef3e56360029092029182015590517f290decd9548b62a8d60345a988386fc84ba6bc95484008f6362f93160ef3e564909101805460ff1916911515919091179055546109599190610a49565b6040518281527feb0a448faf1db18876f6c843c35c660823db4038188aedad797bd3ef46ada3719060200160405180910390a250565b6000602082840312156109a157600080fd5b5035919050565b600080604083850312156109bb57600080fd5b82356001600160a01b03811681146109d257600080fd5b946020939093013593505050565b6020808252600a908201526927a7262cafa0a226a4a760b11b604082015260600190565b634e487b7160e01b600052603260045260246000fd5b634e487b7160e01b600052601160045260246000fd5b80820180821115610a4357610a43610a1a565b92915050565b81810381811115610a4357610a43610a1a56fea26469706673582212204c3aefda91e788695ce01c9dbc648dbd7e8765ff74156b5923f7646ade8c2a1f64736f6c63430008180033",
  "linkReferences": {},
  "deployedLinkReferences": {}
}