{
  "_format": "hh-sol-artifact-1",
  "contractName": "NexaFundWeightedV2",
  "sourceName": "contracts/NexaFundWeightedV2.sol",
  "abi": [
    {
      "inputs": [
        {
          "internalType": "address",
          "name": "_creator",
          "type": "address"
        },
        {
          "internalType": "uint256",
          "name": "_goal",
          "type": "uint256"
        },
        {
          "internalType": "string[]",
          "name": "_descriptions",
          "type": "string[]"
        },
        {
          "internalType": "uint256[]",
          "name": "_amounts",
          "type": "uint256[]"
        },
        {
          "internalType": "uint256",
          "name": "_minQuorumPower",
          "type": "uint256"
        }
      ],
      "stateMutability": "nonpayable",
      "type": "constructor"
    },
    {
      "anonymous": false,
      "inputs": [
        {
          "indexed": true,
          "internalType": "address",
          "name": "oldAdmin",
          "type": "address"
        },
        {
          "indexed": true,
          "internalType": "address",
          "name": "newAdmin",
          "type": "address"
        }
      ],
      "name": "AdminTransferred",
      "type": "event"
    },
    {
      "anonymous": false,
      "inputs": [],
      "name": "Cancelled",
      "type": "event"
    },
    {
      "anonymous": false,
      "inputs": [
        {
          "indexed": true,
          "internalType": "address",
          "name": "backer",
          "type": "address"
        },
        {
          "indexed": false,
          "internalType": "uint256",
          "name": "amount",
          "type": "uint256"
        }
      ],
      "name": "Contributed",
      "type": "event"
    },
    {
      "anonymous": false,
      "inputs": [
        {
          "indexed": true,
          "internalType": "uint256",
          "name": "milestone",
          "type": "uint256"
        },
        {
          "indexed": false,
          "internalType": "string",
          "name": "reason",
          "type": "string"
        }
      ],
      "name": "MilestoneRejected",
      "type": "event"
    },
    {
      "anonymous": false,
      "inputs": [
        {
          "indexed": true,
          "internalType": "uint256",
          "name": "milestone",
          "type": "uint256"
        },
        {
          "indexed": false,
          "internalType": "uint256",
          "name": "amount",
          "type": "uint256"
        },
        {
          "indexed": true,
          "internalType": "address",
          "name": "to",
          "type": "address"
        }
      ],
      "name": "MilestoneReleased",
      "type": "event"
    },
    {
      "anonymous": false,
      "inputs": [
        {
          "indexed": true,
          "internalType": "address",
          "name": "backer",
          "type": "address"
        },
        {
          "indexed": true,
          "internalType": "uint256",
          "name": "milestone",
          "type": "uint256"
        },
        {
          "indexed": false,
          "internalType": "uint256",
          "name": "amount",
          "type": "uint256"
        }
      ],
      "name": "RefundIssued",
      "type": "event"
    },
    {
      "anonymous": false,
      "inputs": [
        {
          "indexed": true,
          "internalType": "address",
          "name": "backer",
          "type": "address"
        },
        {
          "indexed": true,
          "internalType": "uint256",
          "name": "milestone",
          "type": "uint256"
        },
        {
          "indexed": false,
          "internalType": "bool",
          "name": "approve",
          "type": "bool"
        },
        {
          "indexed": false,
          "internalType": "uint256",
          "name": "power",
          "type": "uint256"
        }
      ],
      "name": "Voted",
      "type": "event"
    },
    {
      "anonymous": false,
      "inputs": [
        {
          "indexed": true,
          "internalType": "uint256",
          "name": "milestone",
          "type": "uint256"
        },
        {
          "indexed": false,
          "internalType": "uint64",
          "name": "start",
          "type": "uint64"
        },
        {
          "indexed": false,
          "internalType": "uint64",
          "name": "end",
          "type": "uint64"
        }
      ],
      "name": "VotingOpened",
      "type": "event"
    },
    {
      "stateMutability": "payable",
      "type": "fallback"
    },
    {
      "inputs": [],
      "name": "MIN_QUORUM_POWER",
      "outputs": [
        {
          "internalType": "uint256",
          "name": "",
          "type": "uint256"
        }
      ],
      "stateMutability": "view",
      "type": "function"
    },
    {
      "inputs": [],
      "name": "YES_THRESHOLD_PCT",
      "outputs": [
        {
          "internalType": "uint256",
          "name": "",
          "type": "uint256"
        }
      ],
      "stateMutability": "view",
      "type": "function"
    },
    {
      "inputs": [],
      "name": "admin",
      "outputs": [
        {
          "internalType": "address",
          "name": "",
          "type": "address"
        }
      ],
      "stateMutability": "view",
      "type": "function"
    },
    {
      "inputs": [
        {
          "internalType": "uint256",
          "name": "milestoneIndex",
          "type": "uint256"
        }
      ],
      "name": "adminForceRelease",
      "outputs": [],
      "stateMutability": "nonpayable",
      "type": "function"
    },
    {
      "inputs": [
        {
          "internalType": "address",
          "name": "to",
          "type": "address"
        },
        {
          "internalType": "uint256",
          "name": "amountWei",
          "type": "uint256"
        }
      ],
      "name": "adminRefund",
      "outputs": [],
      "stateMutability": "nonpayable",
      "type": "function"
    },
    {
      "inputs": [
        {
          "internalType": "uint256",
          "name": "milestoneIndex",
          "type": "uint256"
        },
        {
          "internalType": "string",
          "name": "reason",
          "type": "string"
        }
      ],
      "name": "adminRejectMilestone",
      "outputs": [],
      "stateMutability": "nonpayable",
      "type": "function"
    },
    {
      "inputs": [],
      "name": "cancel",
      "outputs": [],
      "stateMutability": "nonpayable",
      "type": "function"
    },
    {
      "inputs": [],
      "name": "cancelled",
      "outputs": [
        {
          "internalType": "bool",
          "name": "",
          "type": "bool"
        }
      ],
      "stateMutability": "view",
      "type": "function"
    },
    {
      "inputs": [],
      "name": "claimCancellationRefund",
      "outputs": [],
      "stateMutability": "nonpayable",
      "type": "function"
    },
    {
      "inputs": [
        {
          "internalType": "uint256",
          "name": "milestoneIndex",
          "type": "uint256"
        }
      ],
      "name": "claimRefund",
      "outputs": [],
      "stateMutability": "nonpayable",
      "type": "function"
    },
    {
      "inputs": [],
      "name": "contribute",
      "outputs": [],
      "stateMutability": "payable",
      "type": "function"
    },
    {
      "inputs": [
        {
          "internalType": "address",
          "name": "",
          "type": "address"
        }
      ],
      "name": "contributions",
      "outputs": [
        {
          "internalType": "uint256",
          "name": "",
          "type": "uint256"
        }
      ],
      "stateMutability": "view",
      "type": "function"
    },
    {
      "inputs": [],
      "name": "creator",
      "outputs": [
        {
          "internalType": "address",
          "name": "",
          "type": "address"
        }
      ],
      "stateMutability": "view",
      "type": "function"
    },
    {
      "inputs": [
        {
          "internalType": "uint256",
          "name": "milestoneIndex",
          "type": "uint256"
        }
      ],
      "name": "finalize",
      "outputs": [],
      "stateMutability": "nonpayable",
      "type": "function"
    },
    {
      "inputs": [
        {
          "internalType": "uint256",
          "name": "i",
          "type": "uint256"
        }
      ],
      "name": "getMilestone",
      "outputs": [
        {
          "internalType": "string",
          "name": "description",
          "type": "string"
        },
        {
          "internalType": "uint256",
          "name": "amount",
          "type": "uint256"
        },
        {
          "internalType": "bool",
          "name": "released",
          "type": "bool"
        },
        {
          "internalType": "bool",
          "name": "rejected",
          "type": "bool"
        },
        {
          "internalType": "uint256",
          "name": "yesPower",
          "type": "uint256"
        },
        {
          "internalType": "uint256",
          "name": "noPower",
          "type": "uint256"
        },
        {
          "internalType": "uint64",
          "name": "voteStart",
          "type": "uint64"
        },
        {
          "internalType": "uint64",
          "name": "voteEnd",
          "type": "uint64"
        }
      ],
      "stateMutability": "view",
      "type": "function"
    },
    {
      "inputs": [],
      "name": "getMilestoneCount",
      "outputs": [
        {
          "internalType": "uint256",
          "name": "",
          "type": "uint256"
        }
      ],
      "stateMutability": "view",
      "type": "function"
    },
    {
      "inputs": [
        {
          "internalType": "address",
          "name": "backer",
          "type": "address"
        }
      ],
      "name": "getPendingRefunds",
      "outputs": [
        {
          "internalType": "uint256[]",
          "name": "milestoneIndices",
          "type": "uint256[]"
        },
        {
          "internalType": "uint256[]",
          "name": "refundAmounts",
          "type": "uint256[]"
        }
      ],
      "stateMutability": "view",
      "type": "function"
    },
    {
      "inputs": [
        {
          "internalType": "address",
          "name": "backer",
          "type": "address"
        },
        {
          "internalType": "uint256",
          "name": "milestoneIndex",
          "type": "uint256"
        }
      ],
      "name": "getRefundAmount",
      "outputs": [
        {
          "internalType": "uint256",
          "name": "",
          "type": "uint256"
        }
      ],
      "stateMutability": "view",
      "type": "function"
    },
    {
      "inputs": [],
      "name": "goal",
      "outputs": [
        {
          "internalType": "uint256",
          "name": "",
          "type": "uint256"
        }
      ],
      "stateMutability": "view",
      "type": "function"
    },
    {
      "inputs": [
        {
          "internalType": "address",
          "name": "",
          "type": "address"
        },
        {
          "internalType": "uint256",
          "name": "",
          "type": "uint256"
        }
      ],
      "name": "hasVoted",
      "outputs": [
        {
          "internalType": "bool",
          "name": "",
          "type": "bool"
        }
      ],
      "stateMutability": "view",
      "type": "function"
    },
    {
      "inputs": [
        {
          "internalType": "uint256",
          "name": "",
          "type": "uint256"
        }
      ],
      "name": "milestones",
      "outputs": [
        {
          "internalType": "string",
          "name": "description",
          "type": "string"
        },
        {
          "internalType": "uint256",
          "name": "amount",
          "type": "uint256"
        },
        {
          "internalType": "bool",
          "name": "released",
          "type": "bool"
        },
        {
          "internalType": "bool",
          "name": "rejected",
          "type": "bool"
        },
        {
          "internalType": "uint256",
          "name": "yesPower",
          "type": "uint256"
        },
        {
          "internalType": "uint256",
          "name": "noPower",
          "type": "uint256"
        },
        {
          "internalType": "uint64",
          "name": "voteStart",
          "type": "uint64"
        },
        {
          "internalType": "uint64",
          "name": "voteEnd",
          "type": "uint64"
        }
      ],
      "stateMutability": "view",
      "type": "function"
    },
    {
      "inputs": [
        {
          "internalType": "uint256",
          "name": "milestoneIndex",
          "type": "uint256"
        },
        {
          "internalType": "uint64",
          "name": "start",
          "type": "uint64"
        },
        {
          "internalType": "uint64",
          "name": "end",
          "type": "uint64"
        }
      ],
      "name": "openVoting",
      "outputs": [],
      "stateMutability": "nonpayable",
      "type": "function"
    },
    {
      "inputs": [],
      "name": "raised",
      "outputs": [
        {
          "internalType": "uint256",
          "name": "",
          "type": "uint256"
        }
      ],
      "stateMutability": "view",
      "type": "function"
    },
    {
      "inputs": [
        {
          "internalType": "address",
          "name": "",
          "type": "address"
        },
        {
          "internalType": "uint256",
          "name": "",
          "type": "uint256"
        }
      ],
      "name": "refundClaimed",
      "outputs": [
        {
          "internalType": "bool",
          "name": "",
          "type": "bool"
        }
      ],
      "stateMutability": "view",
      "type": "function"
    },
    {
      "inputs": [
        {
          "internalType": "uint256",
          "name": "",
          "type": "uint256"
        }
      ],
      "name": "totalRefunded",
      "outputs": [
        {
          "internalType": "uint256",
          "name": "",
          "type": "uint256"
        }
      ],
      "stateMutability": "view",
      "type": "function"
    },
    {
      "inputs": [
        {
          "internalType": "address",
          "name": "newAdmin",
          "type": "address"
        }
      ],
      "name": "transferAdmin",
      "outputs": [],
      "stateMutability": "nonpayable",
      "type": "function"
    },
    {
      "inputs": [
        {
          "internalType": "uint256",
          "name": "milestoneIndex",
          "type": "uint256"
        },
        {
          "internalType": "bool",
          "name": "approve",
          "type": "bool"
        }
      ],
      "name": "voteMilestone",
      "outputs": [],
      "stateMutability": "nonpayable",
      "type": "function"
    },
    {
      "stateMutability": "payable",
      "type": "receive"
    }
  ],
  "bytecode": "0x60c06040523480156200001157600080fd5b5060405162002a4238038062002a428339810160408190526200003491620003ac565b6001600160a01b0385166200007e5760405162461bcd60e51b815260206004820152600b60248201526a2120a22fa1a922a0aa27a960a91b60448201526064015b60405180910390fd5b8151835114620000c35760405162461bcd60e51b815260206004820152600f60248201526e0988a9c8ea890be9a92a69a82a8869608b1b604482015260640162000075565b600180546001600160a01b0387166001600160a01b03199182161790915560008054909116331781556080859052805b84518110156200026557600860405180610100016040528087848151811062000120576200012062000544565b6020026020010151815260200186848151811062000142576200014262000544565b6020908102919091018101518252600082820181905260408301819052606083018190526080830181905260a0830181905260c0909201829052835460018101855593825290208151919260060201908190620001a09082620005eb565b50602082015160018201556040820151600282018054606085015115156101000261ff00199315159390931661ffff19909116179190911790556080820151600382015560a0820151600482015560c08201516005909101805460e0909301516001600160401b0390811668010000000000000000026001600160801b0319909416921691909117919091179055835184908290811062000245576200024562000544565b6020026020010151826200025a9190620006b7565b9150600101620000f3565b50848114620002b75760405162461bcd60e51b815260206004820152601a60248201527f4d494c4553544f4e45535f4d5553545f455155414c5f474f414c000000000000604482015260640162000075565b5060a05250620006df92505050565b634e487b7160e01b600052604160045260246000fd5b604051601f8201601f191681016001600160401b0381118282101715620003075762000307620002c6565b604052919050565b60006001600160401b038211156200032b576200032b620002c6565b5060051b60200190565b600082601f8301126200034757600080fd5b81516020620003606200035a836200030f565b620002dc565b8083825260208201915060208460051b8701019350868411156200038357600080fd5b602086015b84811015620003a1578051835291830191830162000388565b509695505050505050565b600080600080600060a08688031215620003c557600080fd5b85516001600160a01b0381168114620003dd57600080fd5b6020870151604088015191965094506001600160401b03808211156200040257600080fd5b818801915088601f8301126200041757600080fd5b8151620004286200035a826200030f565b8082825260208201915060208360051b86010192508b8311156200044b57600080fd5b602085015b8381101562000506578051858111156200046957600080fd5b8601603f81018e136200047b57600080fd5b602081015186811115620004935762000493620002c6565b620004a8601f8201601f1916602001620002dc565b8181528f6040838501011115620004be57600080fd5b60005b82811015620004e4576040818501015160208284010152602081019050620004c1565b5060006020838301015280865250505060208301925060208101905062000450565b5060608b015190975093505050808211156200052157600080fd5b50620005308882890162000335565b925050608086015190509295509295909350565b634e487b7160e01b600052603260045260246000fd5b600181811c908216806200056f57607f821691505b6020821081036200059057634e487b7160e01b600052602260045260246000fd5b50919050565b601f821115620005e6576000816000526020600020601f850160051c81016020861015620005c15750805b601f850160051c820191505b81811015620005e257828155600101620005cd565b5050505b505050565b81516001600160401b03811115620006075762000607620002c6565b6200061f816200061884546200055a565b8462000596565b602080601f8311600181146200065757600084156200063e5750858301515b600019600386901b1c1916600185901b178555620005e2565b600085815260208120601f198616915b82811015620006885788860151825594840194600190910190840162000667565b5085821015620006a75787850151600019600388901b60f8161c191681555b5050505050600190811b01905550565b80820180821115620006d957634e487b7160e01b600052601160045260246000fd5b92915050565b60805160a05161232f62000713600039600081816104970152611c630152600081816103080152611746015261232f6000f3fe6080604052600436106101a05760003560e01c80635c450bdf116100ec578063d7bb99ba1161008a578063ea8a1af011610064578063ea8a1af014610560578063f0ea4bfc14610575578063f850356c1461058b578063f851a440146105ab57600080fd5b8063d7bb99ba146104fd578063e6f5a96414610505578063e89e4ed61461054057600080fd5b80637e590109116100c65780637e590109146104855780638f4cf247146104b95780639a82a09a146104ce578063d4f91cb0146104e857600080fd5b80635c450bdf146104255780635f2c36ee1461044557806375829def1461046557600080fd5b8063401938831161015957806342d5c8781161013357806342d5c878146103a357806342e94c90146103b857806342fa3c34146103e55780635b7baf641461040557600080fd5b806340193883146102f6578063415e13ca1461032a578063425458251461035857600080fd5b806302d05d3f146101e857806305261aea146102255780630fa7b7b3146102475780632442e1cb1461028257806330f90d6c146102b6578063346eb6d1146102d657600080fd5b366101e35760405162461bcd60e51b815260206004820152600e60248201526d5553455f434f4e5452494255544560901b60448201526064015b60405180910390fd5b600080fd5b3480156101f457600080fd5b50600154610208906001600160a01b031681565b6040516001600160a01b0390911681526020015b60405180910390f35b34801561023157600080fd5b50610245610240366004611e92565b6105cb565b005b34801561025357600080fd5b50610274610262366004611e92565b60076020526000908152604090205481565b60405190815260200161021c565b34801561028e57600080fd5b506102a261029d366004611e92565b6106d4565b60405161021c989796959493929190611eab565b3480156102c257600080fd5b506102456102d1366004611f57565b610859565b3480156102e257600080fd5b506102456102f1366004611fee565b61097d565b34801561030257600080fd5b506102747f000000000000000000000000000000000000000000000000000000000000000081565b34801561033657600080fd5b5061034a610345366004612018565b610aeb565b60405161021c929190612076565b34801561036457600080fd5b50610393610373366004611fee565b600560209081526000928352604080842090915290825290205460ff1681565b604051901515815260200161021c565b3480156103af57600080fd5b50610274603c81565b3480156103c457600080fd5b506102746103d3366004612018565b60046020526000908152604090205481565b3480156103f157600080fd5b506102456104003660046120bb565b610d79565b34801561041157600080fd5b50610245610420366004611e92565b610f1d565b34801561043157600080fd5b50610245610440366004611e92565b6111ce565b34801561045157600080fd5b50610274610460366004611fee565b611305565b34801561047157600080fd5b50610245610480366004612018565b6114dc565b34801561049157600080fd5b506102747f000000000000000000000000000000000000000000000000000000000000000081565b3480156104c557600080fd5b50600854610274565b3480156104da57600080fd5b506003546103939060ff1681565b3480156104f457600080fd5b506102456115a3565b6102456116e8565b34801561051157600080fd5b50610393610520366004611fee565b600660209081526000928352604080842090915290825290205460ff1681565b34801561054c57600080fd5b506102a261055b366004611e92565b611824565b34801561056c57600080fd5b5061024561191c565b34801561058157600080fd5b5061027460025481565b34801561059757600080fd5b506102456105a63660046120f7565b6119c5565b3480156105b757600080fd5b50600054610208906001600160a01b031681565b6000546001600160a01b031633146105f55760405162461bcd60e51b81526004016101da9061212c565b60006008828154811061060a5761060a612150565b60009182526020909120600690910201600281015490915060ff1615801561063c57506002810154610100900460ff16155b6106585760405162461bcd60e51b81526004016101da90612166565b6005810154600160401b90046001600160401b03161580159061068e57506005810154600160401b90046001600160401b031642115b6106c65760405162461bcd60e51b81526020600482015260096024820152681393d517d15391115160ba1b60448201526064016101da565b6106d08282611c49565b5050565b606060008060008060008060008060088a815481106106f5576106f5612150565b90600052602060002090600602016040518061010001604052908160008201805461071f90612191565b80601f016020809104026020016040519081016040528092919081815260200182805461074b90612191565b80156107985780601f1061076d57610100808354040283529160200191610798565b820191906000526020600020905b81548152906001019060200180831161077b57829003601f168201915b50505091835250506001820154602080830191909152600283015460ff80821615156040808601919091526101009092041615156060808501919091526003850154608080860191909152600486015460a0808701919091526005909601546001600160401b0380821660c080890191909152600160401b9092041660e09687015287519488015193880151928801519188015196880151908801519790950151939f50919d509b5099509197509550909350915050919395975091939597565b6000546001600160a01b031633146108835760405162461bcd60e51b81526004016101da9061212c565b60035460ff16156108a65760405162461bcd60e51b81526004016101da906121cb565b60085483106108c75760405162461bcd60e51b81526004016101da906121ee565b6000600884815481106108dc576108dc612150565b60009182526020909120600690910201600281015490915060ff1615801561090e57506002810154610100900460ff16155b61092a5760405162461bcd60e51b81526004016101da90612166565b60028101805461ff00191661010017905560405184907f2346e8d925f08bef41586c0448cb9db28a92557839fbbe0e1a14656b7e3937129061096f908690869061220b565b60405180910390a250505050565b6000546001600160a01b031633146109a75760405162461bcd60e51b81526004016101da9061212c565b60035460ff166109e95760405162461bcd60e51b815260206004820152600d60248201526c1393d517d0d05390d153131151609a1b60448201526064016101da565b6001600160a01b038216610a2d5760405162461bcd60e51b815260206004820152600b60248201526a4241445f4144445245535360a81b60448201526064016101da565b6000826001600160a01b03168260405160006040518083038185875af1925050503d8060008114610a7a576040519150601f19603f3d011682016040523d82523d6000602084013e610a7f565b606091505b5050905080610aa05760405162461bcd60e51b81526004016101da9061223a565b600019836001600160a01b03167f93c496f36ecab5f5583f216646cac3acb12a63aeacddb1a9251ceb81f0ee36e784604051610ade91815260200190565b60405180910390a3505050565b6060806000805b600854811015610b9c5760088181548110610b0f57610b0f612150565b906000526020600020906006020160020160019054906101000a900460ff168015610b5e57506001600160a01b038516600090815260066020908152604080832084845290915290205460ff16155b8015610b8157506001600160a01b03851660009081526004602052604090205415155b15610b945781610b908161227e565b9250505b600101610af2565b50806001600160401b03811115610bb557610bb5612297565b604051908082528060200260200182016040528015610bde578160200160208202803683370190505b509250806001600160401b03811115610bf957610bf9612297565b604051908082528060200260200182016040528015610c22578160200160208202803683370190505b5091506000805b600854811015610d715760088181548110610c4657610c46612150565b906000526020600020906006020160020160019054906101000a900460ff168015610c9557506001600160a01b038616600090815260066020908152604080832084845290915290205460ff16155b8015610cb857506001600160a01b03861660009081526004602052604090205415155b15610d695780858381518110610cd057610cd0612150565b60200260200101818152505060025460088281548110610cf257610cf2612150565b90600052602060002090600602016001015460046000896001600160a01b03166001600160a01b0316815260200190815260200160002054610d3491906122ad565b610d3e91906122c4565b848381518110610d5057610d50612150565b602090810291909101015281610d658161227e565b9250505b600101610c29565b505050915091565b6000546001600160a01b03163314610da35760405162461bcd60e51b81526004016101da9061212c565b60035460ff1615610dc65760405162461bcd60e51b81526004016101da906121cb565b6008548310610de75760405162461bcd60e51b81526004016101da906121ee565b816001600160401b0316816001600160401b0316118015610e11575042826001600160401b031610155b610e4a5760405162461bcd60e51b815260206004820152600a6024820152694241445f57494e444f5760b01b60448201526064016101da565b600060088481548110610e5f57610e5f612150565b60009182526020909120600690910201600281015490915060ff16158015610e9157506002810154610100900460ff16155b610ead5760405162461bcd60e51b81526004016101da90612166565b6005810180546001600160401b038581166fffffffffffffffffffffffffffffffff199092168217600160401b9186169182021790925560408051918252602082019290925285917f7d5ae5fbd2b3264107d46bc2e08a6e263b96a81c79c38be292badea362ad5dc5910161096f565b60035460ff1615610f405760405162461bcd60e51b81526004016101da906121cb565b6008548110610f615760405162461bcd60e51b81526004016101da906121ee565b600060088281548110610f7657610f76612150565b906000526020600020906006020190508060020160019054906101000a900460ff16610fd35760405162461bcd60e51b815260206004820152600c60248201526b1393d517d491529150d5115160a21b60448201526064016101da565b33600090815260066020908152604080832085845290915290205460ff16156110305760405162461bcd60e51b815260206004820152600f60248201526e1053149150511657d0d31052535151608a1b60448201526064016101da565b336000908152600460205260409020548061107f5760405162461bcd60e51b815260206004820152600f60248201526e2727afa1a7a72a2924a12aaa24a7a760891b60448201526064016101da565b600060025483600101548361109491906122ad565b61109e91906122c4565b9050804710156110e75760405162461bcd60e51b8152602060048201526014602482015273494e53554646494349454e545f42414c414e434560601b60448201526064016101da565b3360009081526006602090815260408083208784528252808320805460ff191660011790556007909152812080548392906111239084906122e6565b9091555050604051600090339083908381818185875af1925050503d806000811461116a576040519150601f19603f3d011682016040523d82523d6000602084013e61116f565b606091505b50509050806111905760405162461bcd60e51b81526004016101da9061223a565b604051828152859033907f93c496f36ecab5f5583f216646cac3acb12a63aeacddb1a9251ceb81f0ee36e79060200160405180910390a35050505050565b6000546001600160a01b031633146111f85760405162461bcd60e51b81526004016101da9061212c565b60035460ff161561121b5760405162461bcd60e51b81526004016101da906121cb565b600854811061123c5760405162461bcd60e51b81526004016101da906121ee565b60006008828154811061125157611251612150565b60009182526020909120600690910201600281015490915060ff16156112ac5760405162461bcd60e51b815260206004820152601060248201526f1053149150511657d49153115054d15160821b60448201526064016101da565b6002810154610100900460ff16156112fb5760405162461bcd60e51b81526020600482015260126024820152711352531154d513d39157d491529150d5115160721b60448201526064016101da565b6106d08282611d4a565b6008546000908210611319575060006114d6565b60006008838154811061132e5761132e612150565b90600052602060002090600602016040518061010001604052908160008201805461135890612191565b80601f016020809104026020016040519081016040528092919081815260200182805461138490612191565b80156113d15780601f106113a6576101008083540402835291602001916113d1565b820191906000526020600020905b8154815290600101906020018083116113b457829003601f168201915b505050918352505060018201546020820152600282015460ff8082161515604084015261010090910416151560608083019190915260038301546080830152600483015460a08301526005909201546001600160401b0380821660c0840152600160401b9091041660e0909101528101519091506114535760009150506114d6565b6001600160a01b038416600090815260066020908152604080832086845290915290205460ff16156114895760009150506114d6565b6001600160a01b038416600090815260046020526040812054908190036114b5576000925050506114d6565b60025460208301516114c790836122ad565b6114d191906122c4565b925050505b92915050565b6000546001600160a01b031633146115065760405162461bcd60e51b81526004016101da9061212c565b6001600160a01b0381166115485760405162461bcd60e51b81526020600482015260096024820152682120a22fa0a226a4a760b91b60448201526064016101da565b600080546040516001600160a01b03808516939216917ff8ccb027dfcd135e000e9d45e6cc2d662578a8825d4c45b5e32e0adf67e79ec691a3600080546001600160a01b0319166001600160a01b0392909216919091179055565b60035460ff166115e55760405162461bcd60e51b815260206004820152600d60248201526c1393d517d0d05390d153131151609a1b60448201526064016101da565b33600090815260046020526040902054806116345760405162461bcd60e51b815260206004820152600f60248201526e2727afa1a7a72a2924a12aaa24a7a760891b60448201526064016101da565b336000818152600460205260408082208290555190919083908381818185875af1925050503d8060008114611685576040519150601f19603f3d011682016040523d82523d6000602084013e61168a565b606091505b50509050806116ab5760405162461bcd60e51b81526004016101da9061223a565b6040518281526000199033907f93c496f36ecab5f5583f216646cac3acb12a63aeacddb1a9251ceb81f0ee36e79060200160405180910390a35050565b60035460ff161561170b5760405162461bcd60e51b81526004016101da906121cb565b600034116117445760405162461bcd60e51b81526004016101da906020808252600490820152635a45524f60e01b604082015260600190565b7f00000000000000000000000000000000000000000000000000000000000000003460025461177391906122e6565b11156117b05760405162461bcd60e51b815260206004820152600c60248201526b115610d1515114d7d1d3d05360a21b60448201526064016101da565b33600090815260046020526040812080543492906117cf9084906122e6565b9250508190555034600260008282546117e891906122e6565b909155505060405134815233907f62722348256371b5147820d6cad90c40fd2da1ccee18c3ed52c0bca5a61dbbab9060200160405180910390a2565b6008818154811061183457600080fd5b906000526020600020906006020160009150905080600001805461185790612191565b80601f016020809104026020016040519081016040528092919081815260200182805461188390612191565b80156118d05780601f106118a5576101008083540402835291602001916118d0565b820191906000526020600020905b8154815290600101906020018083116118b357829003601f168201915b50505060018401546002850154600386015460048701546005909701549596929560ff8084169650610100909304909216935091906001600160401b0380821691600160401b90041688565b6000546001600160a01b031633146119465760405162461bcd60e51b81526004016101da9061212c565b60035460ff161561198d5760405162461bcd60e51b81526020600482015260116024820152701053149150511657d0d05390d153131151607a1b60448201526064016101da565b6003805460ff191660011790556040517f63b958841f79ab97cb5456da181454b9932c0e15a3b17f1cbd27e2a8bc61043790600090a1565b60035460ff16156119e85760405162461bcd60e51b81526004016101da906121cb565b6008548210611a095760405162461bcd60e51b81526004016101da906121ee565b600060088381548110611a1e57611a1e612150565b60009182526020909120600690910201600281015490915060ff16158015611a5057506002810154610100900460ff16155b611a6c5760405162461bcd60e51b81526004016101da90612166565b60058101546001600160401b031615801590611a95575060058101546001600160401b03164210155b8015611ab557506005810154600160401b90046001600160401b03164211155b611af15760405162461bcd60e51b815260206004820152600d60248201526c4e4f545f494e5f57494e444f5760981b60448201526064016101da565b33600090815260056020908152604080832086845290915290205460ff1615611b4c5760405162461bcd60e51b815260206004820152600d60248201526c1053149150511657d593d51151609a1b60448201526064016101da565b3360009081526004602052604090205480611b965760405162461bcd60e51b815260206004820152600a6024820152692727aa2fa120a1a5a2a960b11b60448201526064016101da565b3360009081526005602090815260408083208784529091529020805460ff191660011790558215611be05780826003016000828254611bd591906122e6565b90915550611bfa9050565b80826004016000828254611bf491906122e6565b90915550505b60408051841515815260208101839052859133917f9fea94799b68dbb994c4e44547ea7b5c9e4068fbc385b8b688005a16b60c3cc6910160405180910390a3611c438483611c49565b50505050565b600081600401548260030154611c5f91906122e6565b90507f0000000000000000000000000000000000000000000000000000000000000000811015611c8e57505050565b60008183600301546064611ca291906122ad565b611cac91906122c4565b9050603c8110611cc557611cc08484611d4a565b611c43565b60028301805461ff00191661010017905560405184907f2346e8d925f08bef41586c0448cb9db28a92557839fbbe0e1a14656b7e3937129061096f9060208082526029908201527f566f74696e67206661696c656420746f20726561636820617070726f76616c206040820152681d1a1c995cda1bdb1960ba1b606082015260800190565b8060010154471015611d955760405162461bcd60e51b8152602060048201526014602482015273494e53554646494349454e545f42414c414e434560601b60448201526064016101da565b60028101805460ff191660019081179091558054908201546040516000926001600160a01b031691908381818185875af1925050503d8060008114611df6576040519150601f19603f3d011682016040523d82523d6000602084013e611dfb565b606091505b5050905080611e4c5760405162461bcd60e51b815260206004820152601860248201527f5452414e534645525f544f5f43524541544f525f4641494c000000000000000060448201526064016101da565b60018054908301546040519081526001600160a01b039091169084907fefa981f9388f17167597c5fee4fc3d24b2b772263e1accbf61cfb2d219fc40f590602001610ade565b600060208284031215611ea457600080fd5b5035919050565b60006101008083528a518082850152600091505b80821015611ee1576020828d0101516101208386010152602082019150611ebf565b6101209150600082828601015281601f19601f83011685010192505050886020830152611f12604083018915159052565b86151560608301528560808301528460a0830152611f3b60c08301856001600160401b03169052565b6001600160401b03831660e08301529998505050505050505050565b600080600060408486031215611f6c57600080fd5b8335925060208401356001600160401b0380821115611f8a57600080fd5b818601915086601f830112611f9e57600080fd5b813581811115611fad57600080fd5b876020828501011115611fbf57600080fd5b6020830194508093505050509250925092565b80356001600160a01b0381168114611fe957600080fd5b919050565b6000806040838503121561200157600080fd5b61200a83611fd2565b946020939093013593505050565b60006020828403121561202a57600080fd5b61203382611fd2565b9392505050565b60008151808452602080850194506020840160005b8381101561206b5781518752958201959082019060010161204f565b509495945050505050565b604081526000612089604083018561203a565b828103602084015261209b818561203a565b95945050505050565b80356001600160401b0381168114611fe957600080fd5b6000806000606084860312156120d057600080fd5b833592506120e0602085016120a4565b91506120ee604085016120a4565b90509250925092565b6000806040838503121561210a57600080fd5b823591506020830135801515811461212157600080fd5b809150509250929050565b6020808252600a908201526927a7262cafa0a226a4a760b11b604082015260600190565b634e487b7160e01b600052603260045260246000fd5b6020808252601190820152701053149150511657d19253905312569151607a1b604082015260600190565b600181811c908216806121a557607f821691505b6020821081036121c557634e487b7160e01b600052602260045260246000fd5b50919050565b60208082526009908201526810d05390d15313115160ba1b604082015260600190565b60208082526003908201526227a7a160e91b604082015260600190565b60208152816020820152818360408301376000818301604090810191909152601f909201601f19160101919050565b60208082526014908201527314915195539117d514905394d1915497d190525360621b604082015260600190565b634e487b7160e01b600052601160045260246000fd5b60006001820161229057612290612268565b5060010190565b634e487b7160e01b600052604160045260246000fd5b80820281158282048414176114d6576114d6612268565b6000826122e157634e487b7160e01b600052601260045260246000fd5b500490565b808201808211156114d6576114d661226856fea2646970667358221220e23e0dead1ff3455c8f61f53fd2e5b3eb84a3c6e88d370eb11c0fab06588998b64736f6c63430008180033",
  "linkReferences": {},
  "deployedLinkReferences": {}
}