{
  "_format": "hh-sol-artifact-1",
  "contractName": "NexaFundV3",
  "sourceName": "contracts/NexaFundV3.sol",
  "abi": [
    {
      "inputs": [
        {
          "internalType": "address",
          "name": "_creator",
          "type": "address"
        },
        {
          "internalType": "uint256",
          "name": "_goal",
          "type": "uint256"
        },
        {
          "internalType": "uint256[]",
          "name": "_milestoneAmounts",
          "type": "uint256[]"
        }
      ],
      "stateMutability": "nonpayable",
      "type": "constructor"
    },
    {
      "anonymous": false,
      "inputs": [],
      "name": "CampaignCancelled",
      "type": "event"
    },
    {
      "anonymous": false,
      "inputs": [
        {
          "indexed": true,
          "internalType": "address",
          "name": "backer",
          "type": "address"
        },
        {
          "indexed": false,
          "internalType": "uint256",
          "name": "amount",
          "type": "uint256"
        }
      ],
      "name": "CancellationRefundIssued",
      "type": "event"
    },
    {
      "anonymous": false,
      "inputs": [
        {
          "indexed": true,
          "internalType": "address",
          "name": "backer",
          "type": "address"
        },
        {
          "indexed": false,
          "internalType": "uint256",
          "name": "amount",
          "type": "uint256"
        }
      ],
      "name": "Contributed",
      "type": "event"
    },
    {
      "anonymous": false,
      "inputs": [
        {
          "indexed": true,
          "internalType": "uint256",
          "name": "milestoneIndex",
          "type": "uint256"
        }
      ],
      "name": "MilestoneRejected",
      "type": "event"
    },
    {
      "anonymous": false,
      "inputs": [
        {
          "indexed": true,
          "internalType": "uint256",
          "name": "milestoneIndex",
          "type": "uint256"
        },
        {
          "indexed": false,
          "internalType": "uint256",
          "name": "amount",
          "type": "uint256"
        },
        {
          "indexed": true,
          "internalType": "address",
          "name": "to",
          "type": "address"
        }
      ],
      "name": "MilestoneReleased",
      "type": "event"
    },
    {
      "anonymous": false,
      "inputs": [
        {
          "indexed": true,
          "internalType": "address",
          "name": "backer",
          "type": "address"
        },
        {
          "indexed": true,
          "internalType": "uint256",
          "name": "milestoneIndex",
          "type": "uint256"
        },
        {
          "indexed": false,
          "internalType": "uint256",
          "name": "amount",
          "type": "uint256"
        }
      ],
      "name": "RefundIssued",
      "type": "event"
    },
    {
      "inputs": [],
      "name": "admin",
      "outputs": [
        {
          "internalType": "address",
          "name": "",
          "type": "address"
        }
      ],
      "stateMutability": "view",
      "type": "function"
    },
    {
      "inputs": [
        {
          "internalType": "uint256",
          "name": "",
          "type": "uint256"
        }
      ],
      "name": "backerList",
      "outputs": [
        {
          "internalType": "address",
          "name": "",
          "type": "address"
        }
      ],
      "stateMutability": "view",
      "type": "function"
    },
    {
      "inputs": [],
      "name": "cancelCampaign",
      "outputs": [],
      "stateMutability": "nonpayable",
      "type": "function"
    },
    {
      "inputs": [],
      "name": "cancelled",
      "outputs": [
        {
          "internalType": "bool",
          "name": "",
          "type": "bool"
        }
      ],
      "stateMutability": "view",
      "type": "function"
    },
    {
      "inputs": [],
      "name": "claimCancellationRefund",
      "outputs": [],
      "stateMutability": "nonpayable",
      "type": "function"
    },
    {
      "inputs": [
        {
          "internalType": "uint256",
          "name": "milestoneIndex",
          "type": "uint256"
        }
      ],
      "name": "claimRefund",
      "outputs": [],
      "stateMutability": "nonpayable",
      "type": "function"
    },
    {
      "inputs": [],
      "name": "contribute",
      "outputs": [],
      "stateMutability": "payable",
      "type": "function"
    },
    {
      "inputs": [
        {
          "internalType": "address",
          "name": "",
          "type": "address"
        }
      ],
      "name": "contributions",
      "outputs": [
        {
          "internalType": "uint256",
          "name": "",
          "type": "uint256"
        }
      ],
      "stateMutability": "view",
      "type": "function"
    },
    {
      "inputs": [],
      "name": "creator",
      "outputs": [
        {
          "internalType": "address",
          "name": "",
          "type": "address"
        }
      ],
      "stateMutability": "view",
      "type": "function"
    },
    {
      "inputs": [
        {
          "internalType": "address",
          "name": "backer",
          "type": "address"
        }
      ],
      "name": "getAllPendingRefunds",
      "outputs": [
        {
          "internalType": "uint256",
          "name": "total",
          "type": "uint256"
        }
      ],
      "stateMutability": "view",
      "type": "function"
    },
    {
      "inputs": [
        {
          "internalType": "uint256",
          "name": "index",
          "type": "uint256"
        }
      ],
      "name": "getBackerAddress",
      "outputs": [
        {
          "internalType": "address",
          "name": "",
          "type": "address"
        }
      ],
      "stateMutability": "view",
      "type": "function"
    },
    {
      "inputs": [],
      "name": "getBackerCount",
      "outputs": [
        {
          "internalType": "uint256",
          "name": "",
          "type": "uint256"
        }
      ],
      "stateMutability": "view",
      "type": "function"
    },
    {
      "inputs": [],
      "name": "getBalance",
      "outputs": [
        {
          "internalType": "uint256",
          "name": "",
          "type": "uint256"
        }
      ],
      "stateMutability": "view",
      "type": "function"
    },
    {
      "inputs": [
        {
          "internalType": "uint256",
          "name": "index",
          "type": "uint256"
        }
      ],
      "name": "getMilestone",
      "outputs": [
        {
          "internalType": "uint256",
          "name": "amount",
          "type": "uint256"
        },
        {
          "internalType": "bool",
          "name": "released",
          "type": "bool"
        },
        {
          "internalType": "bool",
          "name": "rejected",
          "type": "bool"
        }
      ],
      "stateMutability": "view",
      "type": "function"
    },
    {
      "inputs": [],
      "name": "getMilestonesCount",
      "outputs": [
        {
          "internalType": "uint256",
          "name": "",
          "type": "uint256"
        }
      ],
      "stateMutability": "view",
      "type": "function"
    },
    {
      "inputs": [
        {
          "internalType": "address",
          "name": "backer",
          "type": "address"
        },
        {
          "internalType": "uint256",
          "name": "milestoneIndex",
          "type": "uint256"
        }
      ],
      "name": "getPendingRefund",
      "outputs": [
        {
          "internalType": "uint256",
          "name": "",
          "type": "uint256"
        }
      ],
      "stateMutability": "view",
      "type": "function"
    },
    {
      "inputs": [],
      "name": "goal",
      "outputs": [
        {
          "internalType": "uint256",
          "name": "",
          "type": "uint256"
        }
      ],
      "stateMutability": "view",
      "type": "function"
    },
    {
      "inputs": [
        {
          "internalType": "uint256",
          "name": "",
          "type": "uint256"
        }
      ],
      "name": "milestones",
      "outputs": [
        {
          "internalType": "uint256",
          "name": "amount",
          "type": "uint256"
        },
        {
          "internalType": "bool",
          "name": "released",
          "type": "bool"
        },
        {
          "internalType": "bool",
          "name": "rejected",
          "type": "bool"
        }
      ],
      "stateMutability": "view",
      "type": "function"
    },
    {
      "inputs": [],
      "name": "raised",
      "outputs": [
        {
          "internalType": "uint256",
          "name": "",
          "type": "uint256"
        }
      ],
      "stateMutability": "view",
      "type": "function"
    },
    {
      "inputs": [
        {
          "internalType": "address",
          "name": "",
          "type": "address"
        },
        {
          "internalType": "uint256",
          "name": "",
          "type": "uint256"
        }
      ],
      "name": "refundClaimed",
      "outputs": [
        {
          "internalType": "bool",
          "name": "",
          "type": "bool"
        }
      ],
      "stateMutability": "view",
      "type": "function"
    },
    {
      "inputs": [
        {
          "internalType": "uint256",
          "name": "milestoneIndex",
          "type": "uint256"
        }
      ],
      "name": "rejectMilestone",
      "outputs": [],
      "stateMutability": "nonpayable",
      "type": "function"
    },
    {
      "inputs": [
        {
          "internalType": "uint256",
          "name": "milestoneIndex",
          "type": "uint256"
        }
      ],
      "name": "releaseMilestone",
      "outputs": [],
      "stateMutability": "nonpayable",
      "type": "function"
    },
    {
      "inputs": [
        {
          "internalType": "address",
          "name": "newAdmin",
          "type": "address"
        }
      ],
      "name": "transferAdmin",
      "outputs": [],
      "stateMutability": "nonpayable",
      "type": "function"
    }
  ],
  "bytecode": "0x60a06040523480156200001157600080fd5b50604051620018783803806200187883398101604081905262000034916200028f565b6001600160a01b038316620000825760405162461bcd60e51b815260206004820152600f60248201526e24a72b20a624a22fa1a922a0aa27a960891b60448201526064015b60405180910390fd5b6000815111620000c55760405162461bcd60e51b815260206004820152600d60248201526c4e4f5f4d494c4553544f4e455360981b604482015260640162000079565b600180546001600160a01b0385166001600160a01b03199182161790915560008054909116331781556080839052805b82518110156200021d57600083828151811062000116576200011662000385565b6020026020010151116200015e5760405162461bcd60e51b815260206004820152600e60248201526d5a45524f5f4d494c4553544f4e4560901b604482015260640162000079565b6008604051806060016040528085848151811062000180576200018062000385565b6020908102919091018101518252600082820181905260409283018190528454600180820187559582529082902084516002909202019081559083015193018054929091015161ffff1990921692151561ff00191692909217610100911515919091021790558251839082908110620001fd57620001fd62000385565b6020026020010151826200021291906200039b565b9150600101620000f5565b508281146200026f5760405162461bcd60e51b815260206004820152601760248201527f4d494c4553544f4e45535f53554d5f4d49534d41544348000000000000000000604482015260640162000079565b50505050620003c3565b634e487b7160e01b600052604160045260246000fd5b600080600060608486031215620002a557600080fd5b83516001600160a01b0381168114620002bd57600080fd5b60208581015160408701519295509350906001600160401b0380821115620002e457600080fd5b818701915087601f830112620002f957600080fd5b8151818111156200030e576200030e62000279565b8060051b604051601f19603f8301168101818110858211171562000336576200033662000279565b60405291825284820192508381018501918a8311156200035557600080fd5b938501935b8285101562000375578451845293850193928501926200035a565b8096505050505050509250925092565b634e487b7160e01b600052603260045260246000fd5b80820180821115620003bd57634e487b7160e01b600052601160045260246000fd5b92915050565b608051611492620003e660003960008181610245015261115e01526114926000f3fe6080604052600436106101405760003560e01c8063980e7844116100b6578063d4f91cb01161006f578063d4f91cb0146103a8578063d7bb99ba146103bd578063e6f5a964146103c5578063e89e4ed614610400578063f0ea4bfc14610420578063f851a4401461043657600080fd5b8063980e7844146102e95780639a82a09a146102fe578063a7d76c1114610328578063caaed30214610348578063cd852f5d14610368578063cd8b79f81461038857600080fd5b80633a9c6ad3116101085780633a9c6ad314610213578063401938831461023357806342e94c90146102675780635b7baf64146102945780636162f17e146102b457806375829def146102c957600080fd5b806302d05d3f146101455780630b49351c1461018257806312065fe0146101a15780632442e1cb146101b4578063317debf5146101f1575b600080fd5b34801561015157600080fd5b50600154610165906001600160a01b031681565b6040516001600160a01b0390911681526020015b60405180910390f35b34801561018e57600080fd5b506008545b604051908152602001610179565b3480156101ad57600080fd5b5047610193565b3480156101c057600080fd5b506101d46101cf3660046112e8565b610456565b604080519384529115156020840152151590820152606001610179565b3480156101fd57600080fd5b5061021161020c3660046112e8565b6104cf565b005b34801561021f57600080fd5b5061016561022e3660046112e8565b610730565b34801561023f57600080fd5b506101937f000000000000000000000000000000000000000000000000000000000000000081565b34801561027357600080fd5b5061019361028236600461131d565b60046020526000908152604090205481565b3480156102a057600080fd5b506102116102af3660046112e8565b61075a565b3480156102c057600080fd5b50600554610193565b3480156102d557600080fd5b506102116102e436600461131d565b610a32565b3480156102f557600080fd5b50610211610ac4565b34801561030a57600080fd5b506003546103189060ff1681565b6040519015158152602001610179565b34801561033457600080fd5b506101656103433660046112e8565b610bd6565b34801561035457600080fd5b506102116103633660046112e8565b610c48565b34801561037457600080fd5b5061019361038336600461133f565b610db3565b34801561039457600080fd5b506101936103a336600461131d565b610ea9565b3480156103b457600080fd5b50610211610f94565b6102116110f5565b3480156103d157600080fd5b506103186103e036600461133f565b600760209081526000928352604080842090915290825290205460ff1681565b34801561040c57600080fd5b506101d461041b3660046112e8565b6112ae565b34801561042c57600080fd5b5061019360025481565b34801561044257600080fd5b50600054610165906001600160a01b031681565b600080600060088054905084106104885760405162461bcd60e51b815260040161047f90611369565b60405180910390fd5b60006008858154811061049d5761049d611394565b600091825260209091206002909102018054600190910154909660ff8083169750610100909204909116945092505050565b6000546001600160a01b031633146104f95760405162461bcd60e51b815260040161047f906113aa565b60035460ff161561051c5760405162461bcd60e51b815260040161047f906113ce565b600854811061053d5760405162461bcd60e51b815260040161047f90611369565b60006008828154811061055257610552611394565b60009182526020909120600290910201600181015490915060ff16156105ad5760405162461bcd60e51b815260206004820152601060248201526f1053149150511657d49153115054d15160821b604482015260640161047f565b6001810154610100900460ff16156105fa5760405162461bcd60e51b815260206004820152601060248201526f1053149150511657d491529150d5115160821b604482015260640161047f565b80544710156106425760405162461bcd60e51b8152602060048201526014602482015273494e53554646494349454e545f42414c414e434560601b604482015260640161047f565b6001818101805460ff1916821790555481546040516000926001600160a01b031691908381818185875af1925050503d806000811461069d576040519150601f19603f3d011682016040523d82523d6000602084013e6106a2565b606091505b50509050806106e55760405162461bcd60e51b815260206004820152600f60248201526e1514905394d1915497d19052531151608a1b604482015260640161047f565b60015482546040519081526001600160a01b039091169084907fefa981f9388f17167597c5fee4fc3d24b2b772263e1accbf61cfb2d219fc40f59060200160405180910390a3505050565b6005818154811061074057600080fd5b6000918252602090912001546001600160a01b0316905081565b600854811061077b5760405162461bcd60e51b815260040161047f90611369565b60006008828154811061079057610790611394565b906000526020600020906002020190508060010160019054906101000a900460ff166107ed5760405162461bcd60e51b815260206004820152600c60248201526b1393d517d491529150d5115160a21b604482015260640161047f565b33600090815260076020908152604080832085845290915290205460ff161561084a5760405162461bcd60e51b815260206004820152600f60248201526e1053149150511657d0d31052535151608a1b604482015260640161047f565b336000908152600460205260409020546108985760405162461bcd60e51b815260206004820152600f60248201526e2727afa1a7a72a2924a12aaa24a7a760891b604482015260640161047f565b6002543360009081526004602052604081205483549192916108ba9190611410565b6108c49190611427565b9050600081116109045760405162461bcd60e51b815260206004820152600b60248201526a16915493d7d4915195539160aa1b604482015260640161047f565b8047101561094b5760405162461bcd60e51b8152602060048201526014602482015273494e53554646494349454e545f42414c414e434560601b604482015260640161047f565b336000818152600760209081526040808320878452909152808220805460ff191660011790555190919083908381818185875af1925050503d80600081146109af576040519150601f19603f3d011682016040523d82523d6000602084013e6109b4565b606091505b50509050806109f55760405162461bcd60e51b815260206004820152600d60248201526c14915195539117d19052531151609a1b604482015260640161047f565b604051828152849033907f93c496f36ecab5f5583f216646cac3acb12a63aeacddb1a9251ceb81f0ee36e79060200160405180910390a350505050565b6000546001600160a01b03163314610a5c5760405162461bcd60e51b815260040161047f906113aa565b6001600160a01b038116610aa25760405162461bcd60e51b815260206004820152600d60248201526c24a72b20a624a22fa0a226a4a760991b604482015260640161047f565b600080546001600160a01b0319166001600160a01b0392909216919091179055565b6000546001600160a01b03163314610aee5760405162461bcd60e51b815260040161047f906113aa565b60035460ff1615610b115760405162461bcd60e51b815260040161047f906113ce565b60005b600854811015610b9d5760088181548110610b3157610b31611394565b600091825260209091206001600290920201015460ff1615610b955760405162461bcd60e51b815260206004820152601a60248201527f4d494c4553544f4e455f414c52454144595f52454c4541534544000000000000604482015260640161047f565b600101610b14565b506003805460ff191660011790556040517f123d4f203b2b83bfe9f45903402bb88193cc56a43371d97ab5a51bd1817d858690600090a1565b6005546000908210610c1a5760405162461bcd60e51b815260206004820152600d60248201526c0929cac82989288be929c888ab609b1b604482015260640161047f565b60058281548110610c2d57610c2d611394565b6000918252602090912001546001600160a01b031692915050565b6000546001600160a01b03163314610c725760405162461bcd60e51b815260040161047f906113aa565b60035460ff1615610c955760405162461bcd60e51b815260040161047f906113ce565b6008548110610cb65760405162461bcd60e51b815260040161047f90611369565b600060088281548110610ccb57610ccb611394565b60009182526020909120600290910201600181015490915060ff1615610d265760405162461bcd60e51b815260206004820152601060248201526f1053149150511657d49153115054d15160821b604482015260640161047f565b6001810154610100900460ff1615610d735760405162461bcd60e51b815260206004820152601060248201526f1053149150511657d491529150d5115160821b604482015260640161047f565b60018101805461ff00191661010017905560405182907f2268eb603324c1c4f7a3cb60c7e82795fd192cf05601cda427b385d4fcc42a5e90600090a25050565b6008546000908210610dd75760405162461bcd60e51b815260040161047f90611369565b600060088381548110610dec57610dec611394565b906000526020600020906002020190508060010160019054906101000a900460ff161580610e3d57506001600160a01b038416600090815260076020908152604080832086845290915290205460ff165b80610e5e57506001600160a01b038416600090815260046020526040902054155b15610e6d576000915050610ea3565b6002546001600160a01b0385166000908152600460205260409020548254610e959190611410565b610e9f9190611427565b9150505b92915050565b6000805b600854811015610f8e57600060088281548110610ecc57610ecc611394565b906000526020600020906002020190508060010160019054906101000a900460ff168015610f1e57506001600160a01b038416600090815260076020908152604080832085845290915290205460ff16155b8015610f4157506001600160a01b03841660009081526004602052604090205415155b15610f85576002546001600160a01b0385166000908152600460205260409020548254610f6e9190611410565b610f789190611427565b610f829084611449565b92505b50600101610ead565b50919050565b60035460ff16610fd65760405162461bcd60e51b815260206004820152600d60248201526c1393d517d0d05390d153131151609a1b604482015260640161047f565b33600090815260046020526040902054806110255760405162461bcd60e51b815260206004820152600f60248201526e2727afa1a7a72a2924a12aaa24a7a760891b604482015260640161047f565b336000818152600460205260408082208290555190919083908381818185875af1925050503d8060008114611076576040519150601f19603f3d011682016040523d82523d6000602084013e61107b565b606091505b50509050806110bc5760405162461bcd60e51b815260206004820152600d60248201526c14915195539117d19052531151609a1b604482015260640161047f565b60405182815233907fe5b750c13aa79a41b8d85ba2a5a1e24d2774347bf34a772bdfde6a39856813d39060200160405180910390a25050565b60035460ff16156111185760405162461bcd60e51b815260040161047f906113ce565b6000341161115c5760405162461bcd60e51b81526020600482015260116024820152702d22a927afa1a7a72a2924a12aaa24a7a760791b604482015260640161047f565b7f00000000000000000000000000000000000000000000000000000000000000003460025461118b9190611449565b11156111c85760405162461bcd60e51b815260206004820152600c60248201526b115610d1515114d7d1d3d05360a21b604482015260640161047f565b33600090815260046020526040812080543492906111e7908490611449565b9250508190555034600260008282546112009190611449565b90915550503360009081526006602052604090205460ff16611277576005805460018181019092557f036b6384b5eca791c62761152d0c79bb0604c104a5fb6f4eb0703f3154bb3db00180546001600160a01b031916339081179091556000908152600660205260409020805460ff191690911790555b60405134815233907f62722348256371b5147820d6cad90c40fd2da1ccee18c3ed52c0bca5a61dbbab9060200160405180910390a2565b600881815481106112be57600080fd5b60009182526020909120600290910201805460019091015490915060ff8082169161010090041683565b6000602082840312156112fa57600080fd5b5035919050565b80356001600160a01b038116811461131857600080fd5b919050565b60006020828403121561132f57600080fd5b61133882611301565b9392505050565b6000806040838503121561135257600080fd5b61135b83611301565b946020939093013593505050565b602080825260119082015270494e56414c49445f4d494c4553544f4e4560781b604082015260600190565b634e487b7160e01b600052603260045260246000fd5b6020808252600a908201526927a7262cafa0a226a4a760b11b604082015260600190565b60208082526012908201527110d05354105251d397d0d05390d15313115160721b604082015260600190565b634e487b7160e01b600052601160045260246000fd5b8082028115828204841417610ea357610ea36113fa565b60008261144457634e487b7160e01b600052601260045260246000fd5b500490565b80820180821115610ea357610ea36113fa56fea264697066735822122023ee95fec7cafe6af4b79e4b47a34e1017ecb685cb89f313493f129d72457fca64736f6c63430008180033",
  "linkReferences": {},
  "deployedLinkReferences": {}
}